{
  "contractName": "EthPriceOracle",
  "abi": [
    {
      "inputs": [
        {
          "internalType": "address",
          "name": "_owner",
          "type": "address"
        }
      ],
      "stateMutability": "nonpayable",
      "type": "constructor"
    },
    {
      "anonymous": false,
      "inputs": [
        {
          "indexed": false,
          "internalType": "address",
          "name": "oracleAddress",
          "type": "address"
        }
      ],
      "name": "AddOracleEvent",
      "type": "event"
    },
    {
      "anonymous": false,
      "inputs": [
        {
          "indexed": false,
          "internalType": "address",
          "name": "callerAddress",
          "type": "address"
        },
        {
          "indexed": false,
          "internalType": "uint256",
          "name": "id",
          "type": "uint256"
        }
      ],
      "name": "GetLatestEthPriceEvent",
      "type": "event"
    },
    {
      "anonymous": false,
      "inputs": [
        {
          "indexed": false,
          "internalType": "address",
          "name": "oracleAddress",
          "type": "address"
        }
      ],
      "name": "RemoveOracleEvent",
      "type": "event"
    },
    {
      "anonymous": false,
      "inputs": [
        {
          "indexed": false,
          "internalType": "uint256",
          "name": "ethPrice",
          "type": "uint256"
        },
        {
          "indexed": false,
          "internalType": "address",
          "name": "callerAddress",
          "type": "address"
        }
      ],
      "name": "SetLatestEthPriceEvent",
      "type": "event"
    },
    {
      "anonymous": false,
      "inputs": [
        {
          "indexed": false,
          "internalType": "uint256",
          "name": "threshold",
          "type": "uint256"
        }
      ],
      "name": "SetThresholdEvent",
      "type": "event"
    },
    {
      "inputs": [
        {
          "internalType": "uint256",
          "name": "",
          "type": "uint256"
        },
        {
          "internalType": "uint256",
          "name": "",
          "type": "uint256"
        }
      ],
      "name": "requestIdToResponse",
      "outputs": [
        {
          "internalType": "address",
          "name": "oracleAddress",
          "type": "address"
        },
        {
          "internalType": "address",
          "name": "callerAddress",
          "type": "address"
        },
        {
          "internalType": "uint256",
          "name": "ethPrice",
          "type": "uint256"
        }
      ],
      "stateMutability": "view",
      "type": "function",
      "constant": true
    },
    {
      "inputs": [
        {
          "internalType": "address",
          "name": "_oracle",
          "type": "address"
        }
      ],
      "name": "addOracle",
      "outputs": [],
      "stateMutability": "nonpayable",
      "type": "function"
    },
    {
      "inputs": [
        {
          "internalType": "address",
          "name": "_oracle",
          "type": "address"
        }
      ],
      "name": "removeOracle",
      "outputs": [],
      "stateMutability": "nonpayable",
      "type": "function"
    },
    {
      "inputs": [
        {
          "internalType": "uint256",
          "name": "_threshold",
          "type": "uint256"
        }
      ],
      "name": "setThreshold",
      "outputs": [],
      "stateMutability": "nonpayable",
      "type": "function"
    },
    {
      "inputs": [],
      "name": "getLatestEthPrice",
      "outputs": [
        {
          "internalType": "uint256",
          "name": "",
          "type": "uint256"
        }
      ],
      "stateMutability": "nonpayable",
      "type": "function"
    },
    {
      "inputs": [
        {
          "internalType": "uint256",
          "name": "_ethPrice",
          "type": "uint256"
        },
        {
          "internalType": "address",
          "name": "_callerAddress",
          "type": "address"
        },
        {
          "internalType": "uint256",
          "name": "_id",
          "type": "uint256"
        }
      ],
      "name": "setLatestEthPrice",
      "outputs": [],
      "stateMutability": "nonpayable",
      "type": "function"
    }
  ],
  "bytecode": "0x608060405260006002556103e8600355600060045560006005553480156200002657600080fd5b50604051620015393803806200153983398181016040528101906200004c9190620000e3565b620000678160006200006e60201b6200091c1790919060201c565b506200015d565b60018260000160008373ffffffffffffffffffffffffffffffffffffffff1673ffffffffffffffffffffffffffffffffffffffff16815260200190815260200160002060006101000a81548160ff0219169083151502179055505050565b600081519050620000dd8162000143565b92915050565b600060208284031215620000f657600080fd5b60006200010684828501620000cc565b91505092915050565b60006200011c8262000123565b9050919050565b600073ffffffffffffffffffffffffffffffffffffffff82169050919050565b6200014e816200010f565b81146200015a57600080fd5b50565b6113cc806200016d6000396000f3fe608060405234801561001057600080fd5b50600436106100625760003560e01c806330c0b9ec146100675780638bbc085a14610085578063960bfe04146100b7578063cf642f1f146100d3578063df5dd1a5146100ef578063fdc85fc41461010b575b600080fd5b61006f610127565b60405161007c9190610fa5565b60405180910390f35b61009f600480360381019061009a9190610c90565b6101ee565b6040516100ae93929190610e65565b60405180910390f35b6100d160048036038101906100cc9190610c18565b610275565b005b6100ed60048036038101906100e89190610c41565b61030b565b005b61010960048036038101906101049190610bef565b6106be565b005b61012560048036038101906101209190610bef565b6107cb565b005b60006002600081548092919061013c90611110565b91905055506000600354423360025460405160200161015d93929190610e0d565b6040516020818303038152906040528051906020012060001c6101809190611187565b905060016006600083815260200190815260200160002060006101000a81548160ff0219169083151502179055507f3d50a0c24e97813f35595d2f1f37dbf421d5e97f37abd4e222853e9b9c82c8d533826040516101df929190610e9c565b60405180910390a18091505090565b6007602052816000526040600020818154811061020a57600080fd5b9060005260206000209060030201600091509150508060000160009054906101000a900473ffffffffffffffffffffffffffffffffffffffff16908060010160009054906101000a900473ffffffffffffffffffffffffffffffffffffffff16908060020154905083565b61028933600061097a90919063ffffffff16565b6102c8576040517f08c379a00000000000000000000000000000000000000000000000000000000081526004016102bf90610f25565b60405180910390fd5b806005819055507f0f4f9dbb729778e455b47da600927c51653092f52835705824cd1db65a29ed0d6005546040516103009190610fa5565b60405180910390a150565b61031f33600161097a90919063ffffffff16565b61035e576040517f08c379a000000000000000000000000000000000000000000000000000000000815260040161035590610f45565b60405180910390fd5b6006600082815260200190815260200160002060009054906101000a900460ff166103be576040517f08c379a00000000000000000000000000000000000000000000000000000000081526004016103b590610f85565b60405180910390fd5b6103c6610ae7565b60405180606001604052803373ffffffffffffffffffffffffffffffffffffffff1681526020018473ffffffffffffffffffffffffffffffffffffffff1681526020018581525090506007600083815260200190815260200160002081908060018154018082558091505060019003906000526020600020906003020160009091909190915060008201518160000160006101000a81548173ffffffffffffffffffffffffffffffffffffffff021916908373ffffffffffffffffffffffffffffffffffffffff16021790555060208201518160010160006101000a81548173ffffffffffffffffffffffffffffffffffffffff021916908373ffffffffffffffffffffffffffffffffffffffff1602179055506040820151816002015550506000600760008481526020019081526020016000208054905090506005548114156106b7576000805b60076000868152602001908152602001600020805490508110156105b15761059c60076000878152602001908152602001600020828154811061057b577f4e487b7100000000000000000000000000000000000000000000000000000000600052603260045260246000fd5b906000526020600020906003020160020154836109d390919063ffffffff16565b915080806105a990611110565b91505061050f565b506105c58282610a3190919063ffffffff16565b90506006600085815260200190815260200160002060006101000a81549060ff02191690556007600085815260200190815260200160002060006106099190610b34565b60008590508073ffffffffffffffffffffffffffffffffffffffff1663b5d73ba483876040518363ffffffff1660e01b8152600401610649929190610fe9565b600060405180830381600087803b15801561066357600080fd5b505af1158015610677573d6000803e3d6000fd5b505050507f91b860381268a473101de3379abbb70abf7ea6c9d1735cf58b9816479ff3b72782876040516106ac929190610fc0565b60405180910390a150505b5050505050565b6106d233600061097a90919063ffffffff16565b610711576040517f08c379a000000000000000000000000000000000000000000000000000000000815260040161070890610f25565b60405180910390fd5b61072581600161097a90919063ffffffff16565b15610765576040517f08c379a000000000000000000000000000000000000000000000000000000000815260040161075c90610f65565b60405180910390fd5b61077981600161091c90919063ffffffff16565b6004600081548092919061078c90611110565b91905055507fed46b7525d27f2470ee188e1d85693a6a8b59537b58701408b2f53588e63d1db816040516107c09190610e4a565b60405180910390a150565b6107df33600061097a90919063ffffffff16565b61081e576040517f08c379a000000000000000000000000000000000000000000000000000000000815260040161081590610f25565b60405180910390fd5b61083281600161097a90919063ffffffff16565b610871576040517f08c379a000000000000000000000000000000000000000000000000000000000815260040161086890610f45565b60405180910390fd5b6001600454116108b6576040517f08c379a00000000000000000000000000000000000000000000000000000000081526004016108ad90610f05565b60405180910390fd5b6108ca816001610a8990919063ffffffff16565b600460008154809291906108dd906110e6565b91905055507f8d35b822981364028d4bb40af1edcfd97f4e186c8ccf97bafcc9adc68bd58c6d816040516109119190610e4a565b60405180910390a150565b60018260000160008373ffffffffffffffffffffffffffffffffffffffff1673ffffffffffffffffffffffffffffffffffffffff16815260200190815260200160002060006101000a81548160ff0219169083151502179055505050565b60008260000160008373ffffffffffffffffffffffffffffffffffffffff1673ffffffffffffffffffffffffffffffffffffffff16815260200190815260200160002060009054906101000a900460ff16905092915050565b60008082846109e29190611023565b905083811015610a27576040517f08c379a0000000000000000000000000000000000000000000000000000000008152600401610a1e90610ec5565b60405180910390fd5b8091505092915050565b6000808211610a75576040517f08c379a0000000000000000000000000000000000000000000000000000000008152600401610a6c90610ee5565b60405180910390fd5b8183610a819190611079565b905092915050565b60008260000160008373ffffffffffffffffffffffffffffffffffffffff1673ffffffffffffffffffffffffffffffffffffffff16815260200190815260200160002060006101000a81548160ff0219169083151502179055505050565b6040518060600160405280600073ffffffffffffffffffffffffffffffffffffffff168152602001600073ffffffffffffffffffffffffffffffffffffffff168152602001600081525090565b5080546000825560030290600052602060002090810190610b559190610b58565b50565b5b80821115610bc157600080820160006101000a81549073ffffffffffffffffffffffffffffffffffffffff02191690556001820160006101000a81549073ffffffffffffffffffffffffffffffffffffffff0219169055600282016000905550600301610b59565b5090565b600081359050610bd481611368565b92915050565b600081359050610be98161137f565b92915050565b600060208284031215610c0157600080fd5b6000610c0f84828501610bc5565b91505092915050565b600060208284031215610c2a57600080fd5b6000610c3884828501610bda565b91505092915050565b600080600060608486031215610c5657600080fd5b6000610c6486828701610bda565b9350506020610c7586828701610bc5565b9250506040610c8686828701610bda565b9150509250925092565b60008060408385031215610ca357600080fd5b6000610cb185828601610bda565b9250506020610cc285828601610bda565b9150509250929050565b610cd5816110aa565b82525050565b610cec610ce7826110aa565b611159565b82525050565b6000610cff601b83611012565b9150610d0a82611223565b602082019050919050565b6000610d22601a83611012565b9150610d2d8261124c565b602082019050919050565b6000610d45601e83611012565b9150610d5082611275565b602082019050919050565b6000610d68600d83611012565b9150610d738261129e565b602082019050919050565b6000610d8b600e83611012565b9150610d96826112c7565b602082019050919050565b6000610dae601283611012565b9150610db9826112f0565b602082019050919050565b6000610dd1602783611012565b9150610ddc82611319565b604082019050919050565b610df0816110dc565b82525050565b610e07610e02826110dc565b61117d565b82525050565b6000610e198286610df6565b602082019150610e298285610cdb565b601482019150610e398284610df6565b602082019150819050949350505050565b6000602082019050610e5f6000830184610ccc565b92915050565b6000606082019050610e7a6000830186610ccc565b610e876020830185610ccc565b610e946040830184610de7565b949350505050565b6000604082019050610eb16000830185610ccc565b610ebe6020830184610de7565b9392505050565b60006020820190508181036000830152610ede81610cf2565b9050919050565b60006020820190508181036000830152610efe81610d15565b9050919050565b60006020820190508181036000830152610f1e81610d38565b9050919050565b60006020820190508181036000830152610f3e81610d5b565b9050919050565b60006020820190508181036000830152610f5e81610d7e565b9050919050565b60006020820190508181036000830152610f7e81610da1565b9050919050565b60006020820190508181036000830152610f9e81610dc4565b9050919050565b6000602082019050610fba6000830184610de7565b92915050565b6000604082019050610fd56000830185610de7565b610fe26020830184610ccc565b9392505050565b6000604082019050610ffe6000830185610de7565b61100b6020830184610de7565b9392505050565b600082825260208201905092915050565b600061102e826110dc565b9150611039836110dc565b9250827fffffffffffffffffffffffffffffffffffffffffffffffffffffffffffffffff0382111561106e5761106d6111b8565b5b828201905092915050565b6000611084826110dc565b915061108f836110dc565b92508261109f5761109e6111e7565b5b828204905092915050565b60006110b5826110bc565b9050919050565b600073ffffffffffffffffffffffffffffffffffffffff82169050919050565b6000819050919050565b60006110f1826110dc565b91506000821415611105576111046111b8565b5b600182039050919050565b600061111b826110dc565b91507fffffffffffffffffffffffffffffffffffffffffffffffffffffffffffffffff82141561114e5761114d6111b8565b5b600182019050919050565b60006111648261116b565b9050919050565b600061117682611216565b9050919050565b6000819050919050565b6000611192826110dc565b915061119d836110dc565b9250826111ad576111ac6111e7565b5b828206905092915050565b7f4e487b7100000000000000000000000000000000000000000000000000000000600052601160045260246000fd5b7f4e487b7100000000000000000000000000000000000000000000000000000000600052601260045260246000fd5b60008160601b9050919050565b7f536166654d6174683a206164646974696f6e206f766572666c6f770000000000600082015250565b7f536166654d6174683a206469766973696f6e206279207a65726f000000000000600082015250565b7f446f206e6f742072656d6f766520746865206c617374206f7261636c65210000600082015250565b7f4e6f7420616e206f776e65722100000000000000000000000000000000000000600082015250565b7f4e6f7420616e206f7261636c6521000000000000000000000000000000000000600082015250565b7f416c726561647920616e206f7261636c65210000000000000000000000000000600082015250565b7f546869732072657175657374206973206e6f7420696e206d792070656e64696e60008201527f67206c6973742e00000000000000000000000000000000000000000000000000602082015250565b611371816110aa565b811461137c57600080fd5b50565b611388816110dc565b811461139357600080fd5b5056fea2646970667358221220666d416268cdd60fb31c9ce4ed25aa25ef7420c7d6b8c2b87f7bc80f80cc13ed64736f6c63430008030033",
  "immutableReferences": {},
  "source": "// SPDX-License-Identifier: MIT\r\npragma solidity ^0.8.3;\r\nimport \"./Roles.sol\";\r\nimport \"./SafeMath.sol\";\r\nimport \"./CallerContractInterface.sol\";\r\ncontract EthPriceOracle {\r\n  using Roles for Roles.Role;\r\n  Roles.Role private owners;\r\n  Roles.Role private oracles;\r\n  using SafeMath for uint256;\r\n  uint private randNonce = 0;\r\n  uint private modulus = 1000;\r\n  uint private numOracles = 0;\r\n  uint private THRESHOLD = 0;\r\n  mapping(uint256=>bool) pendingRequests;\r\n  struct Response {\r\n    address oracleAddress;\r\n    address callerAddress;\r\n    uint256 ethPrice;\r\n  }\r\n  mapping (uint256=>Response[]) public requestIdToResponse;\r\n  event GetLatestEthPriceEvent(address callerAddress, uint id);\r\n  event SetLatestEthPriceEvent(uint256 ethPrice, address callerAddress);\r\n  event AddOracleEvent(address oracleAddress);\r\n  event RemoveOracleEvent(address oracleAddress);\r\n  event SetThresholdEvent (uint threshold);\r\n  \r\n  constructor (address _owner) public {\r\n    owners.add(_owner);\r\n  }\r\n\r\n  function addOracle(address _oracle) public {\r\n    require(owners.has(msg.sender), \"Not an owner!\");\r\n    require(!oracles.has(_oracle), \"Already an oracle!\");\r\n    oracles.add(_oracle);\r\n    numOracles++;\r\n    emit AddOracleEvent(_oracle);\r\n  }\r\n  function removeOracle (address _oracle) public {\r\n    require(owners.has(msg.sender), \"Not an owner!\");\r\n    require(oracles.has(_oracle), \"Not an oracle!\");\r\n    require (numOracles > 1, \"Do not remove the last oracle!\");\r\n    oracles.remove(_oracle);\r\n    numOracles--;\r\n    emit RemoveOracleEvent(_oracle);\r\n  }\r\n\r\n  function setThreshold (uint _threshold) public {\r\n    require(owners.has(msg.sender), \"Not an owner!\");\r\n    THRESHOLD = _threshold;\r\n    emit SetThresholdEvent(THRESHOLD);\r\n  }\r\n\r\n  function getLatestEthPrice() public returns (uint256) {\r\n    randNonce++;\r\n    uint id = uint(keccak256(abi.encodePacked(block.timestamp, msg.sender, randNonce))) % modulus;\r\n    pendingRequests[id] = true;\r\n    emit GetLatestEthPriceEvent(msg.sender, id);\r\n    return id;\r\n  }\r\n  \r\n  function setLatestEthPrice(uint256 _ethPrice, address _callerAddress, uint256 _id) public {\r\n    require(oracles.has(msg.sender), \"Not an oracle!\");\r\n    require(pendingRequests[_id], \"This request is not in my pending list.\");\r\n    Response memory resp;\r\n    resp = Response(msg.sender, _callerAddress, _ethPrice);\r\n    requestIdToResponse[_id].push(resp);\r\n    uint numResponses = requestIdToResponse[_id].length;\r\n    if (numResponses == THRESHOLD) {\r\n      uint computedEthPrice = 0;\r\n        for (uint f=0; f < requestIdToResponse[_id].length; f++) {\r\n        computedEthPrice = computedEthPrice.add(requestIdToResponse[_id][f].ethPrice);\r\n      }\r\n      computedEthPrice = computedEthPrice.div(numResponses);\r\n      delete pendingRequests[_id];\r\n      delete requestIdToResponse[_id];\r\n      CallerContractInterface callerContractInstance;\r\n      callerContractInstance = CallerContractInterface(_callerAddress);\r\n      callerContractInstance.callback(computedEthPrice, _id);\r\n      emit SetLatestEthPriceEvent(computedEthPrice, _callerAddress);\r\n    }\r\n  }\r\n}\r\n",
  "sourcePath": "C:\\Users\\Trang Mai\\Downloads\\EthPriceOracle\\EthPriceOracle\\web3.js\\btc-oracle\\contracts\\EthPriceOracle.sol",
  "compiler": {
    "name": "solc",
    "version": "0.8.3+commit.8d00100c.Emscripten.clang"
  },
  "schemaVersion": "3.4.16",
  "updatedAt": "2023-12-06T19:51:02.010Z",
  "networkType": "ethereum",
  "devdoc": {
    "kind": "dev",
    "methods": {},
    "version": 1
  },
  "userdoc": {
    "kind": "user",
    "methods": {},
    "version": 1
  }
}